:020000040800F2
:100000000080002059250008C91D0008B517000808
:10001000C51D0008510B0008C13500080000000094
:10002000000000000000000000000000752500082E
:10003000F10F000800000000D9220008092900087B
:10004000F50F0008F50F0008F50F0008F50F000880
:10005000F50F0008F50F0008F90F0008411000081F
:1000600065100008F50F000885100008F50F00085E
:10007000550B0008F50F0008F50F0008F50F0008F4
:10008000F50F0008F50F0008F50F0008000000004C
:10009000F50F0008F50F00080000000031110008FE
:1000A000F50F0008F50F0008F50F0008F50F000820
:1000B000252D0008F50F0008F50F0008F50F0008C2
:1000C00000000000F50F000800000000F50F000818
:1000D000F50F0008F50F0008A1320008F50F000821
:1000E000F50F0008F50F0008F50F0008F50F0008E0
:1000F000F50F0008F50F0008F50F000800000000DC
:100100000000000000000000452D0008F50F000869
:10011000F50F000800000000F50F0008F50F0008BB
:10012000F50F0008F50F0008F50F0008F50F00089F
:10013000F50F0008000000000000000000000000B3
:10014000F50F00080000000000000000F50F000897
:10015000F50F0008F50F0008F50F0008000000007B
:10016000000000000000000000000000000000008F
:10017000000000000000000000000000000000007F
:10018000000000000000000000000000000000006F
:10019000000000000000000000000000F50F000853
:1001A000000000000000000000000000000000004F
:1001B000000000000000000000000000000000003F
:1001C000F50F000800000000F50F00080000000017
:1001D0000000000000000000F50F00080000000013
:1001E000F50F000800000000000000000000000003
:1001F000DFF80CD000F01AFB00480047DD3800089B
:10020000008000200649074A0868504343F239023B
:1002100010440860400870470149086070470000BA
:10022000000000206D4EC6412DE9FE4F804681EA58
:100230000300C00F0C46009021F0004123F0004560
:10024000B8EB0200A94105D24046214690461C4623
:100250000B46024623F00040104347D0270DC7F35A
:100260000A00C3F30A510290401A019040286BDA49
:10027000C3F3130040F4801B0098924620B1002382
:10028000D2EB030A63EB0B0B01985946C0F1400215
:10029000504600F073F906460D4650465946019AFD
:1002A00000F07BF910EB08006141002487EA11524D
:1002B00084EAE7731A4340D0009A62B3019A012A94
:1002C0004FEA075215DC001B61EB02014FF00042C0
:1002D00002EA0752CDE90042001C41F58011324686
:1002E0002B4600F0B2F903B0BDE8F08F404621463E
:1002F000F9E7001B61EB0201001C41F580130018B7
:100300005B412018A2F5001747EB030140EAD570C6
:10031000B6196D4111E06D084FEA360645EAC07521
:100320004FEA0752001B61EB0201001C41F58011EE
:1003300049084FEA30000019514132462B4603B0BC
:10034000BDE8F04F00F072B9009801224000002390
:10035000D0EB020263EBE073009821464FEAE074B1
:10036000B8EB000061EB0401E9E783F000435BE7D1
:1003700081F0004158E72DE9F04D81EA030404F0D3
:10038000004B21F0004514464FF0000A23F00041D5
:1003900050EA050220D054EA01021DD0C5F30A57E5
:1003A0000246C5F31303C1F31300C1F30A5640F428
:1003B000801543F48013A7EB0608101BD64608F2FD
:1003C000FD3873EB050002D308F1010801E0921833
:1003D0005B41B8F1000F03DA00200146BDE8F08D63
:1003E00000204FF48011064684460EE0171B73EB85
:1003F000050705D3121B63EB050306434CEA010C0A
:1004000049084FEA300092185B4150EA0107EDD1EC
:1004100052EA030012D082EA040083EA050108438D
:1004200005D0101BAB4106D20122002306E00022BA
:100430004FF0004302E06FF0010253101AEB060088
:100440004CEB085110EB0A0041EB0B01BDE8F04DFD
:1004500000F0ECB80EB5C10F80EAE0700844CA079E
:10046000002140F233438DE80E000A460B4600F0AF
:10047000ECF803B000BD0EB540F23341029100210B
:10048000CDE900110A460B4600F0DFF803B000BDCD
:1004900000F0004230F000400AD0C10D01F560715B
:1004A000C0F3160042EA0151C208400711437047E9
:1004B00000200146704701F0004330B421F00041B4
:1004C00050EA010206D00A0DA2F56072C1F31301D1
:1004D000002A02DC30BC00207047440F44EAC1040B
:1004E000C100E01830BC00EBC25000F068B830B575
:1004F0000B46014600202022012409E021FA02F5E2
:100500009D4205D303FA02F5491B04FA02F528447B
:10051000151EA2F10102F1DC30BD2DE9F05F0546A8
:10052000002092469B4688460646814640241BE0B2
:10053000284641464746224600F08AF953465A4625
:10054000C01A914110D311461846224600F016F801
:100550002D1A67EB01084F4622460120002100F0CA
:100560000DF817EB00094E41201EA4F10104DFDC59
:10057000484631462A464346BDE8F09F202A04DB20
:10058000203A00FA02F1002070479140C2F12003A6
:1005900020FA03F3194390407047202A06DBCB175B
:1005A000203A41FA02F043EAE07306E041FA02F32E
:1005B000D040C2F1200291400843194670470029FB
:1005C000A8BF7047401C490008BF20F001007047D9
:1005D00010B4B0FA80FC00FA0CF050EA010404BF39
:1005E00010BC704749B1CCF1200421FA04F411FA8F
:1005F0000CF118BF012121430843A3EB0C01CB1DD3
:100600004FEA00614FEA102042BF002010BC704743
:1006100000EBC35010440029A4BF10BC7047401C1D
:10062000490008BF20F0010010BC704710B5141E2F
:1006300073F1000408DA401C41F1000192185B419B
:100640001A4301D120F0010010BD2DE9F04D924672
:100650009B4611B1B1FA81F202E0B0FA80F2203289
:100660009046FFF78BFF04460F4640EA0A0041EA36
:100670000B0153465A46084313D0114653EA010072
:1006800019D0C8F14002504600F0E2F805460E4687
:10069000504659464246FFF771FF084305D00120F6
:1006A00004E020463946BDE8F08D0020054346EAC7
:1006B000E0762C4337430A986305E40AA0EB080070
:1006C0000022FD0A44EA47540A3002D500200146C0
:1006D000E9E7010510196941DDE90845001969419B
:1006E000BDE8F04DA2E72DE9FE4F81EA030404F0D6
:1006F000004421F0004100944FF0000B23F0004330
:1007000050EA01045ED052EA03045BD0C3F30A54FA
:10071000C1F30A552C44A4F2F3340194A0FB025413
:10072000C1F3130141F48011C3F3130343F48013A5
:1007300001FB024400FB034E840A970A44EA8154F9
:1007400047EA8357A4FB076802958D0A05FB0785D6
:100750004FEA932C04FB0C542705029D4FEA0658E0
:1007600047EA1637B5EB08056EEB070C870E920EBD
:1007700047EA811742EA8312A7FB0201B6EB0B019D
:1007800064EB00042B0D43EA0C335E1844EB1C5061
:10079000DA465146E7FB0201C5F313044FEA0B3377
:1007A00043EA14534FEA0432019C43EA0603A4F1DE
:1007B0000C040294009CCDE900B4FFF746FF03B09F
:1007C000BDE8F08F00200146F9E7C1F30A52C1F3FA
:1007D000130140F2FF3341F480119A4202DA002003
:1007E0000146704740F233439A42A2F2334202DCA0
:1007F000524200F02DB8FFF7C1BE000030B5041E14
:1008000071F1000404DB4FF00044404264EB01014D
:10081000141E73F1000405DB1C464FF000435242E6
:1008200063EB0403994208BF904230BD064C074D6C
:1008300006E0E06840F0010394E8070098471034B0
:10084000AC42F6D3FFF7D8FCA8500008C850000807
:10085000202A04DB203A21FA02F00021704721FA15
:1008600002F3D040C2F1200291400843194670477C
:1008700070B58D1810F8014B14F0030201D110F877
:10088000012B231106D110F8013B03E010F8016B96
:1008900001F8016B521EF9D1ABB110F8012B04F035
:1008A0000C048A1A0C2C03D0A2EB84129B1C08E0C7
:1008B00010F8014BA2EB0422F8E712F8014B01F803
:1008C000014B5B1EF9D5A942D4D3002070BD0000B6
:1008D00081B00090BFF35F8F009840F001004EF6AA
:1008E0009451CEF2000108604EF62451CEF2000180
:1008F000086840F480300860BFF34F8FBFF36F8FFC
:1009000001B0704780B584B00390029101920399C1
:10091000029A019B4EF69050CEF2000000F002F8D1
:1009200004B080BD80B588B007900691059204930D
:1009300002200390049801280AD1FFE7069807993E
:10094000886007980C300599022200F041F83CE0DD
:10095000069820F003000290069800F00300019032
:10096000029807998860FFE70198049908440528D0
:1009700020D3FFE70198C0F1040000900798019987
:1009800000EBC1000C300599009A520000F020F8ED
:100990000099059800EBC100059000990498401A51
:1009A0000490002001900298043002900298079968
:1009B0008860D9E70798019900EBC1000C300599D0
:1009C000049A520000F004F8FFE708B080BD000070
:1009D00084B003900291019200200090FFE70098FC
:1009E000019988420CD2FFE70298009A50F8220041
:1009F000039941F82200FFE7009801300090EEE7EC
:100A000004B0704780B582B08DF807008DF80610ED
:100A10009DF807109DF806204EF69050CEF200008B
:100A200000F002F802B080BD84B003908DF80B1086
:100A30008DF80A209DF80B0080088DF809009DF8BC
:100A40000B0000F00300C00001900199FF208840D6
:100A500000909DF80900022801D3FFE714E00398F5
:100A60009DF8091000EB8100006B009A90439DF8FF
:100A70000A10019B99401140084403999DF80920F0
:100A800001EB82010863FFE704B070478CB00B9064
:100A90000A9109920893002003900A9902918DF817
:100AA0000700FF2005900720049001200690FFE733
:100AB00006980499884247D8FFE700200790FFE78F
:100AC00007980599884235D8FFE70B9806990131B8
:100AD000B0FBF1F00799013100FB01F0039003989E
:100AE0000A99884205D9FFE703980A99401A0090AD
:100AF00004E00A980399401A0090FFE700980390D9
:100B000002980399884209D9FFE703980290079851
:100B100009990870069808990870FFE7029820B9AB
:100B2000FFE701208DF8070004E0FFE70798013098
:100B30000790C5E79DF8070008B1FFE704E0FFE76D
:100B4000069802300690B3E702980CB07047000098
:100B5000FFE7FEE780B582B0252000F0B5F9012857
:100B60002BD1FFE7242000F02BF8252000F028F8F7
:100B7000262000F025F8272000F022F81C20C4F2DF
:100B800002000021019100F067F8452000F03EF8D6
:100B9000019A42F60040C4F2010000904FF4007147
:100BA00002F02EF90098019902F0FEF840F22401BB
:100BB000C2F2000101200860FFE702B080BD000022
:100BC00082B00190002000900198400900900098A8
:100BD00001280CD1FFE7019800F01F000090009958
:100BE000012088400421C4F2020108600CE0019851
:100BF00000F01F00009000990120884040F204415D
:100C0000C4F202010860FFE702B0704782B00190B1
:100C100000200090019840090090009801280CD114
:100C2000FFE7019800F01F00009000990120884024
:100C30000421C4F2020108600CE0019800F01F00DA
:100C4000009000990120884040F20441C4F2020162
:100C50000860FFE702B0704782B001908DF8031082
:100C60009DF8030030B1FFE70199086840F00100EA
:100C7000086005E00199086820F001000860FFE7BE
:100C800002B0704781B000900099086820F0010020
:100C90000860009900200860009948600099886009
:100CA0000099C86000980821C4F20201884208D166
:100CB000FFE70421C4F20201086840F00F00086059
:100CC000FFE000981C21C4F20201884208D1FFE72E
:100CD0000421C4F20201086840F0F0000860EFE06F
:100CE00000983021C4F20201884208D1FFE70421B4
:100CF000C4F20201086840F470600860DFE0009808
:100D00004421C4F20201884208D1FFE70421C4F261
:100D10000201086840F470400860CFE00098582154
:100D2000C4F20201884208D1FFE70421C4F20201A3
:100D3000086840F470200860BFE000986C21C4F29D
:100D40000201884208D1FFE70421C4F202010868C9
:100D500040F470000860AFE000988021C4F2020106
:100D6000884208D1FFE70421C4F20201086840F07C
:100D7000706008609FE000989421C4F202018842EC
:100D800008D1FFE70421C4F20201086840F0704076
:100D900008608FE0009840F20841C4F202018842E6
:100DA00009D1FFE740F20441C4F20201086840F0B3
:100DB0000F0008607DE0009840F21C41C4F202017F
:100DC000884209D1FFE740F20441C4F202010868F9
:100DD00040F0F00008606BE0009840F23041C4F24F
:100DE0000201884209D1FFE740F20441C4F2020146
:100DF000086840F47060086059E0009840F244418F
:100E0000C4F20201884209D1FFE740F20441C4F272
:100E10000201086840F47040086047E0009840F222
:100E20005841C4F20201884209D1FFE740F204416F
:100E3000C4F20201086840F47020086035E00098B0
:100E400040F26C41C4F20201884209D1FFE740F24E
:100E50000441C4F20201086840F47000086023E015
:100E6000009840F28041C4F20201884209D1FFE7B4
:100E700040F20441C4F20201086840F0706008606A
:100E800011E0009840F29441C4F20201884209D175
:100E9000FFE740F20441C4F20201086840F07040EC
:100EA0000860FFE7FFE7FFE7FFE7FFE7FFE7FFE790
:100EB000FFE7FFE7FFE7FFE7FFE7FFE7FFE7FFE702
:100EC000FFE701B07047000083B00290002001905E
:100ED00000900298400901900198012806D1FFE78F
:100EE0000020C4F202000068009006E040F20040DA
:100EF000C4F2020000680090FFE7029800F01F00B3
:100F0000019000980199C84000F0010003B07047BB
:100F100083B0029001918DF803209DF8030030B159
:100F2000FFE7019A029908681043086005E0019AFA
:100F30000299086890430860FFE703B0704700001B
:100F400080B582B00190009101980068009A916884
:100F5000D2F810E0D2F814C0936941EA0E0141EAD8
:100F60000C011943D3691943136A1943536A19438E
:100F7000936A1943D26A1143090961F30F10019969
:100F80000860019840684FF6FF718843009989898D
:100F900008440199486001988068009800680199A8
:100FA00088600198C068009840680199C86002B0E4
:100FB00080BD000081B00090009900200860009979
:100FC0004860009988600099C8600099086100999C
:100FD0004861009988610099C86100990862009988
:100FE0004862009988620099C86201B070470000A9
:100FF00070470000FFE7FEE780B582B00020ADF843
:101000000600012000F0C6F9012817D1FFE70320F0
:1010100001F042F80120009000F09AF843200DF111
:101020000601022200F032FD0098BDF8062046F2CB
:10103000C031C2F200010A604860FFE702B080BD23
:1010400080B582B0022000F0A5F9012808D1FFE7A1
:101050000220019001F020F8019800F079F8FFE7F4
:1010600002B080BD80B5042000F094F9012807D1BA
:10107000FFE7032001F010F8042000F069F8FFE713
:1010800080BD000080B584B000200290102000F0E8
:1010900081F901284AD1FFE70020019000F0FCFF10
:1010A00001980390FFE7039842F20F71884213DC26
:1010B000FFE740F60000C4F20400102100F02AFB14
:1010C000012804D1FFE7029801300290FFE7FFE713
:1010D000039801300390E6E7029842F229318842F2
:1010E00013DBFFE746F2AC31C2F200010120487089
:1010F00044F60570C0F6000044F62071C0F6000109
:101100004FF4AD7203F0BAF9FFE7029B44F6E860D2
:10111000C0F6000044F62071C0F600014FF4AE7234
:1011200003F0ACF9102000F013F8FFE704B080BD25
:1011300080B5202000F02EF9012807D1FFE701201B
:1011400000F0AAFF202000F003F8FFE780BD0000B8
:1011500081B00090009840F21441C4F2010108608F
:1011600001B0704780B592B00220039001210C912C
:1011700001F0B4F80C990420049001F0AFF80C9938
:101180004FF4804001F0FEF80FA8079000F0DEFA5F
:10119000079910200090ADF83C0028208DF83F0002
:1011A00040F60000C4F20400019000F0FFF903983B
:1011B000049901F0E1F910A8099000F09BF9009A58
:1011C00009980C99109200220B928DF84420082265
:1011D0000A928DF845208DF8461000F0F9F807982E
:1011E00000F0B4FA0198079920220292ADF83C2051
:1011F000482205928DF83F2000F0D8F90398052188
:1012000001F0BAF9099800F075F9029B09980B9A58
:101210000C9910938DF844200C2208928DF84520EB
:101220008DF8461000F0D4F8079800F08FFA039A72
:1012300005980799ADF83C208DF83F0040F200403A
:10124000C4F20400069000F0B1F90C99084601F0D0
:1012500093F9099800F04EF9DDF80CC0089A099846
:101260000B9B0C99CDF840C08DF844308DF845208B
:101270008DF8461000F0ACF8079800F067FA049B70
:10128000059A06980799ADF83C308DF83F2000F09C
:101290008DF903990C9801F06FF9099800F02AF97B
:1012A000DDF810C0089A09980B9B0C99CDF840C046
:1012B0008DF844308DF845208DF8461000F088F800
:1012C000079800F043FA059A069807990C9BADF829
:1012D0003C308DF83F2000F069F90B990C9801F033
:1012E0004BF9099800F006F9089A09980B9B0C999C
:1012F00010918DF844308DF845208DF8461000F09F
:1013000067F80B990C9807228DF838208DF8391062
:101310008DF83A008DF83B000EA80D9000F056FDB8
:101320000A9B0B9A0C990D988DF838308DF839205E
:101330008DF83A108DF83B1000F048FD0B9A0C998F
:101340000D980A238DF838308DF839208DF83A1031
:101350008DF83B1000F03AFD0B9A0C990D9817236D
:101360008DF838308DF839208DF83A108DF83B1013
:1013700000F02CFD0B9A0C990D9806238DF838304F
:101380008DF839208DF83A108DF83B1000F01EFDD5
:1013900012B080BD82B0019040F21440C4F201004E
:1013A0000168019A0020114200900CD0FFE740F242
:1013B0000040C4F20100006801990840002818BFED
:1013C00001200090FFE7009800F0010002B0704794
:1013D00081B000900098807900286FD0FFE70098D6
:1013E000026840F20041C4F20101086890430860BD
:1013F0000098026840F20441C4F201010868904379
:1014000008600098007950B9FFE70098026840F240
:101410000041C4F2010108681043086009E0009827
:10142000026840F20441C4F20101086810430860F8
:10143000FFE70098026840F20841C4F20101086821
:10144000904308600098026840F20C41C4F2010128
:1014500008689043086000984079102813D1FFE78E
:101460000098026840F20841C4F201010868104384
:1014700008600098026840F20C41C4F2010108685B
:101480001043086019E00098407908280AD1FFE766
:101490000098026840F20841C4F201010868104354
:1014A000086009E00098026840F20C41C4F20101B2
:1014B000086810430860FFE7FFE718E0009800792C
:1014C00050B9FFE70098026840F20041C4F2010100
:1014D00008689043086009E00098026840F20441FF
:1014E000C4F20101086890430860FFE7FFE701B01C
:1014F0007047000081B000900099002008600099BA
:101500000871009A0C2151710099887101B07047DF
:1015100080B588B002200121019100F0DFFE019921
:101520000420049000F0DAFE07A8069000F00EF9FF
:10153000069910200590ADF81C0028208DF81F009A
:1015400040F60000C4F20400029000F02FF8069864
:1015500000F0FCF8029806992022ADF81C204822E1
:1015600003928DF81F2000F021F8069800F0EEF8A5
:10157000039806990622ADF81C208DF81F0040F252
:101580000040C4F2040000F011F8069800F0DEF804
:10159000049A05980699ADF81C208DF81F000020CC
:1015A000C4F2040000F002F808B080BD86B00590D7
:1015B00004910498C07800F00F0000900498C0785F
:1015C000C006002806D5FFE70498817800980843F4
:1015D0000090FFE70598019000208DF80E00FFE7CE
:1015E0009DF80E00072821DCFFE79DF80E00800023
:1015F0008DF80F00049800889DF80E10C840C007B1
:1016000068B1FFE7019800689DF80F200F21914015
:10161000884300999140084301990860FFE7FFE77C
:101620009DF80E0001308DF80E00D9E705980430C2
:10163000019004984078029000208DF80E00FFE79A
:101640009DF80E00072820DCFFE79DF80E008000C3
:101650008DF80F0002989DF80E10C840C00768B1C1
:10166000FFE7019800689DF80F200F219140884303
:1016700000999140084301990860FFE7FFE79DF852
:101680000E0001308DF80E00DAE70498C0782828A3
:1016900007D1FFE70498028805994869104348611B
:1016A0000CE00498C078482807D1FFE70498028826
:1016B0000599086910430861FFE7FFE706B0704726
:1016C00084B003908DF80B108DF80A209DF80B0064
:1016D00000F0070080008DF809009DF80B00072836
:1016E00004DCFFE703982030009003E003982430E7
:1016F0000090FFE700980190019908689DF8093073
:101700000F229A4090439DF80A209A4010430860A7
:1017100004B0704782B00190ADF802100198806863
:10172000BDF802100840002818BF012002B0704721
:1017300082B00190ADF802100198C068BDF80210A7
:101740000840002818BF012002B0704781B0009007
:1017500000994FF6FF700880009903208870009967
:101760000420C87001B0704782B00190ADF802103B
:101770008DF801209DF8010028B1FFE7BDF80200B7
:101780000199086104E0BDF8020001994861FFE792
:1017900002B0704780B582B08DF807008DF8061052
:1017A0009DF807000DF10601012200F041FAC0B2D8
:1017B00002B080BDFFE7FEE780B58AB04FF480003D
:1017C0000121069100F0A6FD45F60000C4F20000DC
:1017D000059000F059F807A8019000F0D5F901999B
:1017E0000598069AADF81C205522ADF81E2048F247
:1017F000A062C0F20102089200F0ACF80598E62160
:1018000000F0D2F906990420029000F067FD029AD8
:1018100040F60000C4F2040003900821FFF750FFD7
:10182000029A03980921FFF74BFF09A80490FFF7DC
:101830008DFF039804994FF44072ADF824200322E1
:101840008DF826201C228DF82720FFF7AFFE059883
:10185000069900F003F80AB080BD000082B0019044
:101860008DF803109DF8030030B1FFE70199C86EB1
:1018700040F00100C86605E00199C86E20F0010043
:10188000C866FFE702B0704780B584B00390039844
:1018900045F20041C4F2000188420BD1FFE74FF44A
:1018A00000100290012100F051FD0298002100F08B
:1018B0004DFDFFE7039845F60001C4F200018842A0
:1018C0000BD1FFE74FF480000190012100F03EFDB5
:1018D0000198002100F03AFDFFE704B080BD000050
:1018E00082B001908DF803100199C86E40F002009B
:1018F000C866FFE70198C06E8007002801D5FFE7A2
:10190000F8E70198406D02B07047000083B0019085
:1019100000919DF80100000600280CD5FFE7019812
:10192000016F009808406FF3DF30002818BF0120D6
:101930008DF80B0009E00198406B009908400028E1
:1019400018BF01208DF80B00FFE79DF80B0003B0D6
:101950007047000080B58CB00B900A910020099070
:1019600008900790069005900A98406842F20F711F
:10197000884205D8FFE70A9942F210704860FFE7F5
:1019800001A800F01BFD0398099009994CF600206E
:10199000C3F69A30B0FBF1F108910A994968B0FB9F
:1019A000F1F0079007980899B0FBF1F04008059016
:1019B000079A0598089900FB1120B0FBF1F00690FA
:1019C0000B99C86E20F00100C8660A98406848F27A
:1019D000A061C0F20101884215D8FFE70799059878
:1019E00001FB00F0401AB0FBF1F001380B9988615F
:1019F0000799069801FB00F0401AB0FBF1F00C3893
:101A00000B99486118E00799059801FB00F001EB7C
:101A10004102801AB0FBF1F001380B990862079976
:101A2000069801FB00F001EB4102801AB0FBF1F0D7
:101A30000C380B99C861FFE70B98006820F05F0035
:101A40000A990A884B6848F2A16CC0F2010C042183
:101A5000634538BF022101F14003012A08BF19463E
:101A6000114341F4907140F27F12114008430B99E9
:101A700008600B99086B00F4404008630B99002044
:101A800088630B99C8630CB080BD000080B584B03A
:101A90008DF80F0002918DF807200DF10F00012144
:101AA000009100F093F802989DF8071000F02AF8D2
:101AB000009945F60000C4F20000FFF711FFFFE7B0
:101AC00045F60000C4F2000048F20401FFF71EFFD3
:101AD00008B9FFE7F4E79DF8070004B080BD0000F7
:101AE00081B000900099086940F48070086101B0ED
:101AF0007047000081B0009000980069C0B201B04A
:101B00007047000080B582B00190ADF8021000204F
:101B10008DF801008DF80100FFE79DF80100BDF888
:101B20000210884223DAFFE745F60000C4F2000005
:101B3000FFF7D6FFFFE745F60000C4F2000048F2C9
:101B40000801FFF7E3FE08B9FFE7F4E745F60000F8
:101B5000C4F20000FFF7CEFF01999DF801208854E0
:101B6000FFE79DF8010001308DF80100D5E702B0D4
:101B700080BD000082B001908DF803109DF8030035
:101B80000199086102B0704781B00090009901206E
:101B90000880009955204880009948F2A060C0F262
:101BA0000100486001B0704782B001908DF80310C9
:101BB0000198406840F2FF3188439DF8031040EAE5
:101BC00051000199486002B07047000080B582B0B2
:101BD00001908DF8031000208DF802008DF80200AE
:101BE000FFE79DF802009DF8031088421DDAFFE729
:101BF00001989DF80210415C45F60000C4F2000017
:101C0000FFF7B8FFFFE745F60000C4F2000048F216
:101C10000401FFF77BFE08B9FFE7F4E7FFE79DF853
:101C2000020001308DF80200DBE702B080BD000049
:101C300080B584B08DF80F0002918DF807200DF16A
:101C40000F000121FFF7C2FF02989DF80710FFF770
:101C5000BDFFFFE745F60000C4F2000048F20401B2
:101C6000FFF754FE08B9FFE7F4E745F60000C4F2B9
:101C700000000121FFF734FEFFE745F60000C4F243
:101C8000000048F20401FFF741FE08B9FFE7F4E75E
:101C90009DF8070004B080BD80B582B00190019925
:101CA00041F6AC30C2F2000000F54050009002F066
:101CB00075FB00984FF4BA6100F0D0FF02B080BD10
:101CC00080B58AB004AA029209908DF82310BDF85D
:101CD00026008DF80F000998000A8DF80E0009986B
:101CE0008DF80D009DF80F009DF80E109DF80D2049
:101CF000EC4604ABCCF8043005ABCCF8003006ABB6
:101D000002F058FA02989DF8231000EE101AB8EE6F
:101D1000400A9FED121A80EE010A80ED000A90ED54
:101D2000020AD0ED010A90ED001A0DF10F000DF13D
:101D30000E010DF10D0201F083FC9DF80F0000046F
:101D40009DF80E1040EA0120084407900798FFF71D
:101D5000A3FF0A2000F090F80AB080BD0000804385
:101D600080B582B044F66E50C0F6000003210191A8
:101D700000F00EF8019A44F61461C0F6000100204C
:101D8000FEF7C0FD0620FEF7A3FD02B080BD0000F7
:101D900080B584B00390029100200190FFE7019884
:101DA000029988420BD2FFE701980399095CC0B2FF
:101DB000FEF728FEFFE7019801300190EFE704B03D
:101DC00080BD0000FFE7FEE7FFE7FEE784B0039079
:101DD0000020029001900F2000900398C078C0B3BB
:101DE000FFE74EF60C50CEF200000068C043C0F38F
:101DF000022002900298C0F104000190009802991C
:101E0000C840009003984078019988400290039858
:101E100080780099014002980843029002980001DE
:101E200002900298039909784EF20042CEF2000225
:101E300088540398027802F01F01012088404EF276
:101E40000011CEF2000141EAD20121F00301086045
:101E50000FE00398027802F01F01012088404EF243
:101E60008011CEF2000141EAD20121F003010860A5
:101E7000FFE704B07047000081B00090009846F280
:101E8000B431C2F200010860FFE746F2B430C2F29A
:101E90000000006808B1FFE7F7E701B070470000F5
:101EA00080B500F04DF84FF4E13000F005F800F097
:101EB00061F800F04DF980BD80B58EB00D90102016
:101EC00000900121039100F05DFA06A8019001F055
:101ED00061FB009801990D9A069230220792002228
:101EE000089209920B920A9043F60000C4F2010096
:101EF000029001F0E5FA0298039901F02FFA039994
:101F0000084600F0EBF90020C4F204000490092117
:101F10000722FFF7D5FB0CA80590FFF717FC0498E4
:101F200005994FF40072ADF8302003228DF832206D
:101F300018228DF83320FFF739FB0EB080BD00006A
:101F400080B584B0684600F039FA019844F6D35160
:101F5000C1F26201A0FB0110800900F0ABFC10B1DE
:101F6000FFE7FFE7FEE74FF0FF30002101F02AFB1B
:101F700004B080BD80B586B002200290012104919A
:101F800000F0ACF90499042000F0A8F905A801902C
:101F9000FFF7DCFB01994FF44060ADF8140003201B
:101FA00003908DF81600102000908DF8170040F275
:101FB0000040C4F20400FFF7F9FA0198FFF7C6FBEE
:101FC00000980199039AC023ADF814308DF81620BB
:101FD0008DF8170040F60000C4F20400FFF7E6FA9F
:101FE0000499002000F00EF80499084600F00AF861
:101FF0000298049900F006F80398049900F002F89A
:1020000006B080BD80B582B08DF807008DF806104F
:102010009DF807000146009103283AD80099DFE8AF
:1020200001F002101E2B9DF80600421E18BF01226F
:1020300040F20040C4F204004FF40061FFF794FB4B
:1020400028E09DF80600421E18BF012240F2004021
:10205000C4F204004FF48061FFF786FB1AE09DF89C
:102060000600421E18BF012240F60000C4F2040020
:102070008021FFF779FB0DE09DF80600421E18BF96
:10208000012240F60000C4F204004021FFF76CFB7F
:1020900000E0FFE702B080BD80B58AB08DF8270070
:1020A0009DF827000146089103284ED80899DFE8DB
:1020B00001F00215283A40F20040C4F204000790F3
:1020C0004FF400610691FFF733FB0699024607982B
:1020D000B2FA82F25209FFF747FB37E040F20040C4
:1020E000C4F2040005904FF480610491FFF720FBD7
:1020F000049902460598B2FA82F25209FFF734FBBE
:1021000024E040F60000C4F2040003908021029114
:10211000FFF70EFB029902460398B2FA82F25209C7
:10212000FFF722FB12E040F60000C4F20400019029
:1021300040210091FFF7FCFA009902460198B2FA9B
:1021400082F25209FFF710FB00E0FFE70AB080BD02
:1021500080B588B044F63170C0F6000002F08EF908
:1021600044F64670C0F6000002F088F944F6B96003
:10217000C0F6000002F082F941F20400C4F202004D
:10218000006800F00C00014603910C2835D8039933
:10219000DFE801F0073333330E3333331533333392
:1021A0002C0044F6E570C0F6000002F067F925E067
:1021B00044F6C370C0F6000002F060F91EE041F280
:1021C0004800C4F202000068C00738B1FFE744F6D7
:1021D0005B70C0F6000002F051F906E044F68F7023
:1021E000C0F6000002F04AF9FFE707E045F20700F9
:1021F000C0F6000002F042F900E0FFE704A800F09A
:10220000DDF844F6B960C0F60000029002F036F93D
:102210000498FEF730F941EC100B51EC100B9FEDD8
:102220002C0B53EC102B01930092FEF7A4F841EC19
:10223000100B53EC102B45F28600C0F6000002F0A4
:102240001DF90598FEF717F9009A019B41EC100B58
:1022500051EC100BFEF78FF841EC100B53EC102BE8
:1022600045F22900C0F6000002F008F90698FEF7D2
:1022700002F9009A019B41EC100B51EC100BFEF798
:102280007AF841EC100B53EC102B45F24800C0F6E5
:10229000000002F0F3F80798FEF7EDF8009A019BB2
:1022A00041EC100B51EC100BFEF765F841EC100BF4
:1022B00053EC102B45F26700C0F6000002F0DEF888
:1022C000029802F0DBF808B080BD00BF00BF00BF7D
:1022D0000000000080842E417047000082B0019011
:1022E0008DF803109DF8030048B1FFE7019A41F211
:1022F0002801C4F2020108681043086008E0019A4E
:1023000041F22801C4F20201086890430860FFE727
:1023100002B0704782B001908DF803109DF8030061
:1023200048B1FFE7019A41F23001C4F202010868A6
:102330001043086008E0019A41F23001C4F2020142
:10234000086890430860FFE702B0704782B00190D0
:102350008DF803109DF8030048B1FFE7019A41F2A0
:102360001C01C4F2020108681043086008E0019AE9
:1023700041F21C01C4F20201086890430860FFE7C3
:1023800002B0704782B001908DF803109DF80300F1
:1023900048B1FFE7019A41F22C01C4F2020108683A
:1023A0001043086008E0019A41F22C01C4F20201D6
:1023B000086890430860FFE702B0704787B0069056
:1023C000002005900490039002908DF807008DF88E
:1023D000060041F20400C4F20200006800F00C00A4
:1023E0000590059800900C2800F275800099DFE8B0
:1023F00001F0077272721A727272217272726D003B
:1024000041F20000C4F202000068C0F3C2208DF85F
:1024100007009DF8071041F20020C0F27A00C84082
:10242000069908605EE0069941F60030C0F2B700F8
:10243000086057E041F24800C4F202000168C1F3AD
:10244000026104910168C1F3074103910168C1F37E
:1024500002210291006800F001008DF806009DF84D
:102460000600F8B9FFE741F20000C4F2020000687C
:10247000C0F3C2208DF807009DF8071041F200203C
:10248000C0F27A00C84004990131B0FBF1F0029922
:102490000131B0FBF1F00399013100FB01F0069925
:1024A000086012E00498411C41F60030C0F2B70009
:1024B000B0FBF1F002990131B0FBF1F00399013169
:1024C00000FB01F006990860FFE70BE0069949F66A
:1024D0004040086006E0069941F20020C0F27A0010
:1024E0000860FFE741F20401C4F202010868C0B2CB
:1024F00000090590059A40F20800C2F20000805CD5
:102500008DF80700069A10689DF80730D840506093
:102510000868C0F302200590059A40F21800C2F244
:102520000000825C8DF80720069B5A689DF807C062
:1025300022FA0CF29A600968C1F3C221059105994B
:10254000405C8DF80700069948689DF80720D04048
:10255000C86007B07047000082B047F60000C2F2C2
:1025600000000190019880F30A8800F0DDF9FDF782
:102570003FFE00007047000082B08DF807008DF824
:102580000610002000909DF8060000F00300810076
:102590000F2088400090009B9DF8060000F0FC0191
:1025A0000822C4F201028858984388509DF8071009
:1025B0009DF8060000F003039B0001FA03F300F00E
:1025C000FC0188581843885002B0704780B58AB023
:1025D00000200790012106910490039041F2000130
:1025E000C4F20201086840F001000860FFE741F210
:1025F0000000C4F20200006800F002000690079894
:1026000001300790FFE706990020029039B9FFE7F3
:102610000798B0F5004018BF01200290FFE702982C
:10262000C0070028E3D1FFE741F20000C4F2020036
:1026300000688007002803D5FFE70120069002E02C
:1026400000200690FFE740F22000C2F2000049F2AD
:102650000051C0F6BA21016041F24802C4F2020200
:102660000192116821F001011160016841F200201E
:10267000C0F27A000DF117020DF11603FEF706FA0B
:102680000199086820F00C000860086840F00C0010
:1026900008600698012840F00881FFE742F2000137
:1026A000C4F20201086820F00700086040F2200030
:1026B000C2F200000068013849F68171C1F25E6122
:1026C000A0FB0110400D04900498082803D3FFE7F5
:1026D00007200490FFE7049A42F20001C4F20201CD
:1026E00008681043086040F22000C2F20000006851
:1026F0004EF20111C0F2F551884209D3FFE74BF2C7
:102700000001C4F20201086840F009000860FFE718
:1027100041F20401C4F2020108680490049820F018
:10272000F0000490049840F0A00004900498086021
:1027300008680490049820F460500490049808609D
:1027400008680490049820F4E060049004980860FD
:1027500041F24801C4F202010091086820F0E060F3
:102760000860086820F47F000860086820F4E060D2
:1027700008609DF8170000049DF8162040EA022228
:1027800008681043086041F20001C4F202010868C1
:1027900040F080700860FFE741F20000C4F20200E0
:1027A00000688001002802D4FFE700BFF4E741F28F
:1027B0000401C4F20201086820F003000860086800
:1027C00040F002000860FFE741F20400C4F202009A
:1027D000006800F00C00082802D0FFE700BFF3E714
:1027E00000200390FFE70398C0087C2806D8FFE785
:1027F00000BFFFE7039801300390F4E741F20401C2
:10280000C4F2020108680490049820F0F0000490DB
:10281000049840F090000490049808600020039011
:10282000FFE70398C0087C2806D8FFE700BFFFE752
:10283000039801300390F4E741F20401C4F202016D
:1028400008680490049820F0F0000490049840F088
:10285000800004900498086000200390FFE703982C
:10286000C0087C2806D8FFE700BFFFE703980130C7
:102870000390F4E741F20401C4F2020108680490F5
:10288000049820F0F0000490049808600020039061
:10289000FFE70398C0087C2806D8FFE700BFFFE7E2
:1028A000039801300390F4E701E0FFE7FEE70AB088
:1028B00080BD000080B582B0009000980138B0F172
:1028C000807F03D3FFE70120019019E000980138D1
:1028D0004EF21401CEF2000108604FF0FF300F21DC
:1028E00000F070FE4EF21801CEF2000100200860E8
:1028F0004EF21002CEF20002072111600190FFE7B4
:10290000019802B080BD000046F2B430C2F200006F
:10291000006840B1FFE746F2B431C2F20001086836
:1029200001380860FFE7704780B584B0FFF718FAF8
:102930004EF68851CEF20001086840F4700008603D
:102940004EF61450CEF2000000688003002801D536
:10295000FFE71AE0BFF34F8FBFF36F8F4EF6507152
:10296000CEF2000100200860BFF34F8FBFF36F8FDE
:102970004EF61451CEF20001086840F400300860B1
:10298000BFF34F8FBFF36F8FFFE74EF61450CEF2B9
:1029900000000068C003002801D5FFE73CE04EF6C8
:1029A0008451CEF2000100200860BFF34F8F4EF635
:1029B0008050CEF20000006803900398C0F34E30C0
:1029C0000290FFE70398C0F3C9000190FFE7029966
:1029D0000198800761F34C104EF66071CEF2000151
:1029E00008600198411E01910028F0D1FFE702988C
:1029F000411E02910028E5D1FFE7BFF34F8F4EF64D
:102A00001451CEF20001086840F480300860BFF332
:102A10004F8FBFF36F8FFFE741F20001C4F2020155
:102A2000086840F00100086041F20402C4F20202AA
:102A3000106820F003001060106820F0F0001060B3
:102A4000106820F4E0601060106820F4605010609E
:102A5000106820F070601060086820F48030086012
:102A6000086820F400200860086820F08070086082
:102A7000086820F48020086041F24801C4F2020195
:102A8000086820F001000860086820F0E060086035
:102A9000086820F47F000860086820F4E06008609F
:102AA00041F20801C4F202014FF0FF30086000203B
:102AB000086041F23001C4F20201086840F0805021
:102AC000086047F20001C4F20001086840F4404089
:102AD0000860FFF77BFD04B080BD000080B59EB0AC
:102AE000002002900F900E900D900C900B900A9089
:102AF0000990089042F60040C4F20100069000F0F0
:102B0000BDF947F6B141C9F221510091A0FB011076
:102B1000C00C0F9043F20040C4F2010000F0AEF987
:102B2000009A01460298A1FB0221C90C0B910E905C
:102B30000A900F984FF4967100FB01F044F6D351C0
:102B4000C1F26201A0FB012080090D900B984FF4A7
:102B5000FA7200FB02F0A0FB0120800909900F9897
:102B60004FF42F7200FB02F0A0FB012080090C90B3
:102B70000B98FA2200FB02F0A0FB011080090890DC
:102B8000012107910846FFF7FDFB10A8019000F016
:102B900075FB0199029A0698ADF8402011920F9B9F
:102BA000129313928DF8502000F0FEFA15A80390AE
:102BB00000F0CEFA029B03990698079A4FF0060C94
:102BC000CDF854C01692189319931B920E9A18922E
:102BD00000F0C8F9039906980D9A189200F014FABB
:102BE000039906980C9A189200F060FA0799084623
:102BF000FFF774FB079A0020C4F204000490082138
:102C0000FEF75EFD1DA80590FEF7A0FD049805994E
:102C10004FF48072ADF8742003228DF876201822CC
:102C20008DF87720FEF7C2FC0698079A0D2100F078
:102C3000FFF80698079A4FF4007100F0E1F8069843
:102C4000079900F09BFA0698079900F0ADF80698EE
:102C5000079900F0BFF81EB080BD000080B596B0A7
:102C6000159014914FF4001001210691FFF736FBE7
:102C70001C20C4F202000290FEF704F808A801909C
:102C8000FEF798F90199029842F64C42C4F201020B
:102C90000892159A099210220A92149A0B92002215
:102CA00004920C9280230D934FF4007303930E93C0
:102CB0004FF400630F9310924FF44053119312920C
:102CC0001392FEF73DF92520FDF77AFF0298069A48
:102CD0000221FEF71DF9049906980C228DF81C209C
:102CE0008DF81D108DF81E008DF81F0007A8FFF746
:102CF0006DF802980699FDF7AFFF0399069A42F620
:102D00000040C4F20100059000F07AF8049A05989A
:102D1000069940F22403C2F200031A6000F044F85E
:102D200016B080BD80B54FF08040012100F08CF8D6
:102D300030B1FFE74FF08040012100F02BF8FFE7B2
:102D400080BD000080B546F2B831C2F200010868CB
:102D5000B0FA80F04009086040F60040C4F200007C
:102D6000012100F071F898B1FFE746F2B830C2F2E5
:102D7000000002780020C4F204000421FEF7F4FCF5
:102D800040F60040C4F20000012100F003F8FFE724
:102D900080BD000082B0019000910098C04301996D
:102DA000086102B07047000082B001908DF80310F6
:102DB0009DF8030030B1FFE70199086840F0010079
:102DC000086005E00199086820F001000860FFE74D
:102DD00002B0704782B001908DF803109DF8030097
:102DE00030B1FFE70199486C40F40040486405E0C9
:102DF0000199486C20F400404864FFE702B0704736
:102E000083B0029001918DF803209DF8030030B14A
:102E1000FFE7019A0299C8681043C86005E0019A6B
:102E20000299C8689043C860FFE703B0704700008C
:102E300083B0029001910092019800990843029991
:102E4000886403B07047000083B00290019102983B
:102E50000169019A00201142009009D0FFE7029811
:102E6000C06801990840002818BF01200090FFE7C2
:102E7000009800F0010003B07047000080B58CB0EE
:102E80000B9000200A9009908DF8230040F2024038
:102E9000C1F2080007900120069002A8FFF78EFA01
:102EA0000B9842F60041C4F20101884208D0FFE7C6
:102EB0000B9843F20041C4F20101884236D1FFE78A
:102EC00041F24000C4F202000068C007A0B1FFE771
:102ED00002980A9041F24000C4F202000068C0F378
:102EE00042008DF823000A989DF8232006A9895CEA
:102EF000B0FBF1F0099018E005980A9041F2040047
:102F0000C4F202000068C0F3C2208DF823009DF8CF
:102F1000230018B9FFE70A98019003E00A984000DF
:102F20000190FFE701980990FFE718E004980A90E4
:102F300041F20400C4F202000068C0F302208DF8E0
:102F400023009DF8230018B9FFE70A98009003E0DA
:102F50000A9840000090FFE700980990FFE7099861
:102F60000CB080BD82B001900091019880690099F9
:102F7000096861F30610019988610198006A009957
:102F8000496861F30000019908620198006A00999C
:102F9000096961F34100019908620098C0680199CC
:102FA0004863019842F60041C4F20101884208D00A
:102FB000FFE7019843F20041C4F20101884221D1A8
:102FC000FFE70198006A0099896861F3820001991E
:102FD00008620198006A0099496961F3C300019988
:102FE0000862019840680099896961F30820019995
:102FF0004860019840680099C96961F349200199C6
:103000004860FFE702B0704782B0019000910198DC
:1030100080690099096861F30E300199886101980F
:10302000006A0099496861F30410019908620198E7
:10303000006A0099096961F34510019908620098D6
:10304000C06801998863019842F60041C4F2010109
:10305000884208D0FFE7019843F20041C4F2010121
:10306000884221D1FFE70198006A0099896861F3DD
:103070008610019908620198006A0099496961F314
:10308000C71001990862019840680099896961F345
:103090008A2001994860019840680099C96961F3E4
:1030A000CB2001994860FFE702B0704782B00190E1
:1030B00000910198C0690099096861F306100199AF
:1030C000C8610198006A0099496861F30820019974
:1030D00008620198006A0099096961F34920019921
:1030E00008620098C0680199C863019842F60041DF
:1030F000C4F20101884208D0FFE7019843F2004181
:10310000C4F20101884221D1FFE70198006A0099C9
:10311000896861F38A20019908620198006A009920
:10312000496961F3CB2001990862019840680099D0
:10313000896961F30C3001994860019840680099F1
:10314000C96961F34D3001994860FFE702B07047EB
:1031500081B00090009900200860009948600099B3
:1031600088600099C86000990861009948610099D9
:1031700088610099C86101B07047000082B0019079
:103180008DF803109DF8030030B1FFE701994868FE
:1031900040F00800486005E00199486820F0080008
:1031A0004860FFE702B0704782B00190009101983B
:1031B00000680099C968090A61F30920019908604B
:1031C000019842F60041C4F20101884225D0FFE790
:1031D000019843F20041C4F2010188421DD0FFE78B
:1031E0000198B0F1804F18D0FFE7019840F60041F8
:1031F000C4F20001884210D0FFE7019840F200417C
:10320000C4F20001884208D0FFE7019840F60001AF
:10321000C4F2000188420AD1FFE7019800680099D2
:103220004968090961F3061001990860FFE70198F0
:1032300042F60041C4F20101884208D0FFE701983C
:1032400043F20041C4F2010188420AD1FFE701982C
:10325000006B20F0FF000099097C08440199086385
:10326000FFE7009880680199C8620098008801997A
:10327000886201990120486102B0704781B00090D6
:1032800000994FF0FF308860009900200880009975
:10329000C860009948600099087401B07047000048
:1032A00080B582B000208DF8070044F20040C4F2DF
:1032B0000000022100F0E0F8012844D1FFE744F2C9
:1032C0000040C4F2000000F053F98DF8070046F208
:1032D000BC30C2F20000006807280EDBFFE79DF853
:1032E000070046F2CC31C2F20001087046F2BC3150
:1032F000C2F2000100200860FFE79DF8070046F2D7
:10330000BC31C2F200010A6840F2A031C2F20001F1
:10331000895C884207D0FFE746F2BC31C2F2000167
:103320000020086007E046F2BC31C2F200010868E4
:1033300001300860FFE744F20040C4F20000FF21C2
:1033400000F004F8FFE702B080BD000082B00190F9
:10335000009100980199486102B0704782B00190D5
:103360008DF803109DF8030030B1FFE701998869DB
:1033700040F00100886105E00199886920F00100B2
:103380008861FFE702B0704780B592B011904FF4AA
:10339000003001210891FEF7BDFF09A8009000F060
:1033A000F9F800991198099030200A9000200B90AC
:1033B0000C900E90182003900D9044F20040C4F23F
:1033C0000000069000F07CF808990846FEF786FF9A
:1033D0000020C4F204000490022107910722019208
:1033E000FEF76EF9019A049803210291FEF768F93D
:1033F00010A80590FEF7AAF9029B039A0498059974
:103400004FF0040CADF840C08DF842308DF84320E9
:10341000FEF7CCF80598FEF799F90498059908226B
:10342000ADF8402048228DF84320FEF7BFF80898F9
:1034300026218DF83C108DF83D008DF83E008DF86A
:103440003F000FA8FEF7C2FC06980899FFF786FF19
:1034500006980799089A00F01BF812B080BD00008A
:1034600082B001900091019880680099084000287E
:1034700018BF012002B0704782B0019000910198FE
:10348000C06800990840002818BF012002B07047AA
:1034900083B0029001918DF803209DF8030030B1B4
:1034A000FFE7019A029908691043086105E0019A53
:1034B0000299086990430861FFE703B07047000074
:1034C00080B588B007900691002005900798C069E4
:1034D00006994968090961F305100799C8610798B9
:1034E000C06920F044000699896801F0440108444D
:1034F0000799C8610798C0690699C96861F3010016
:103500000799C8610798806906990969C90861F334
:10351000C4000799886107988069069949698908F4
:1035200061F382000799886101A8FEF747FF0798B9
:1035300043F60001C4F20101884203D1FFE7049879
:10354000059002E003980590FFE705980699096841
:10355000B0FBF1F00009079908620598069909681F
:10356000B0FBF1F000F00F000799486208B080BD91
:1035700081B0009000984068C0B201B07047000070
:1035800082B001908DF803109DF803000199086046
:1035900002B0704781B0009000994FF41650086057
:1035A0000099302048600099002088600099C86028
:1035B000009A182111610099486101B0704700001C
:1035C000FFE7FEE782B08DF8070000919DF9070044
:1035D00000280AD4FFE7009800019DF907104EF279
:1035E0000042CEF2000288540BE0009800019DF8E2
:1035F000071001F00F014EF61452CEF2000288546B
:10360000FFE702B07047000080B582B001900091E2
:103610009DF8041043F60000C4F20100FFF7B0FF6C
:10362000FFE743F60000C4F201000121FFF718FF95
:1036300008B9FFE7F5E7019802B080BD000000007F
:1036400080B58EB08DED0D0ACDED0C0A8DED0B1A07
:103650000A90099108929DED0D0ABDEEC00A10EE88
:10366000101A48F68900C8F6880050FB011148116D
:1036700000EBD1704AF6AB21C2F6AA2150FB01F152
:1036800001EBD17101EB4101A0EB410007900D98D6
:10369000FCF7FEFE41EC100B9FED8D1B53EC112B44
:1036A00051EC100BFCF767FE41EC100B8DED000B9D
:1036B0000798FCF7CFFE9DED001B41EC100B51EC81
:1036C000110B53EC102BFCF750FE41EC100B51EC9E
:1036D000100BFCF7F0FE06909DED0B0A9DED0C2AF9
:1036E000B7EE001A31EE422A20EE020A8DED050AED
:1036F0009DED0B0A9DED063A9DED0C4AB0EE412A78
:10370000A3EE442A20EE020A8DED040A9DED0B0A79
:103710009DED062A32EE412A9DED0C3AA2EE031AE7
:1037200020EE010A8DED030A07980290052800F2A9
:10373000CC800299DFE801F00324456687A89DED5F
:103740000B0A9FED651A20EE010ABDEEC00A10EECD
:10375000100A0A9908709DED030A20EE010ABDEED9
:10376000C00A10EE100A099908709DED050A20EEB6
:10377000010ABDEEC00A10EE100A08990870A4E014
:103780009DED040A9FED541A20EE010ABDEEC00A19
:1037900010EE100A0A9908709DED0B0A20EE010A3E
:1037A000BDEEC00A10EE100A099908709DED050AD9
:1037B00020EE010ABDEEC00A10EE100A089908704A
:1037C00083E09DED050A9FED441A20EE010ABDEE4F
:1037D000C00A10EE100A0A9908709DED0B0A20EE3F
:1037E000010ABDEEC00A10EE100A099908709DED9D
:1037F000030A20EE010ABDEEC00A10EE100A089975
:10380000087062E09DED050A9FED331A20EE010A73
:10381000BDEEC00A10EE100A0A9908709DED040A68
:1038200020EE010ABDEEC00A10EE100A09990870D8
:103830009DED0B0A20EE010ABDEEC00A10EE100A43
:103840000899087041E09DED030A9FED231A20EED0
:10385000010ABDEEC00A10EE100A0A9908709DED2B
:10386000050A20EE010ABDEEC00A10EE100A099901
:1038700008709DED0B0A20EE010ABDEEC00A10EEA5
:10388000100A0899087020E09DED0B0A9FED121AAE
:1038900020EE010ABDEEC00A10EE100A0A99087067
:1038A0009DED050A20EE010ABDEEC00A10EE100AD9
:1038B000099908709DED040A20EE010ABDEEC00AC8
:1038C00010EE100A08990870FFE70EB080BD00BF27
:1038D0000000000000004E4000007F4380B594B01F
:1038E00000200F9013908DF84B00FEF7D9FAFDF7EA
:1038F0000FFEFFF7F3F8FDF75FFF4FF46120FFF7CE
:1039000043FD00F0DBFB00F017FCFDF72BFC0F98EC
:10391000FEF7C2F90F9846F2C831C2F200010870F2
:1039200046F2CA31C2F20001087046F2B031C2F26A
:1039300000010870FFE746F2C030C2F200004068A4
:10394000002867D0FFE746F2C030C2F20000002135
:10395000416000680E90012821D0FFE70E980228F0
:103960001ED0FFE70E9804281BD0FFE70E9808280A
:1039700024D0FFE70E9810282DD0FFE70E982028BE
:1039800036D0FFE70E9840283FD0FFE70E988028FA
:103990003CD0FFE70E98B0F5807F38D038E038E0B3
:1039A00037E046F2CA31C2F200010220087044F644
:1039B000AD60C0F6000000F061FD2AE046F2CA31B9
:1039C000C2F200010320087044F6B460C0F60000A3
:1039D00000F054FD1DE046F2CA31C2F2000104209D
:1039E000087044F6A360C0F6000000F047FD10E048
:1039F00046F2CA31C2F200010520087044F6986010
:103A0000C0F6000000F03AFD03E002E001E000E053
:103A1000FFE7FFE746F2CC30C2F200000078323810
:103A200001460D91032820D80D99DFE801F0020925
:103A3000171046F2CA31C2F200010620087015E0E4
:103A400046F2CA31C2F20001072008700EE046F2C9
:103A5000CA31C2F200010920087007E046F2CA31FB
:103A6000C2F200010820087000E0FFE746F2CC3106
:103A7000C2F200010020087046F2AC30C2F2000031
:103A80000121C170407868B1FFE746F2AC31C2F263
:103A900000010020487046F2CA31C2F20001012044
:103AA0000870FFE746F2B030C2F20000007846F23C
:103AB000CA31C2F200010978884207D1FFE746F215
:103AC000CA30C2F20000007838B9FFE746F2C931C7
:103AD000C2F2000100200870FFE740F22400C2F2A9
:103AE00000000068002800F06B82FFE746F2CA3051
:103AF000C2F200000078013801460C91082800F25B
:103B00005D820C99DFE811F009004C00A900010169
:103B100042017C019301A901DE0146F2C830C2F2E4
:103B200000000078D8B9FFE744F6BC60C0F600009A
:103B300044F6E361C0F60001D32200F09FFC0020B0
:103B400001210B91FEF75EFA4FF47000FEF7A4F826
:103B50000B9846F2C831C2F20001087019E044F631
:103B6000CF60C0F6000044F6E361C0F60001D82241
:103B700000F084FC00210A910846FEF743FA0A98F7
:103B8000FEF78AF80A9846F2C831C2F200010870BE
:103B9000FFE746F2CA31C2F20001002008700EE2CF
:103BA00046F2C930C2F2000000783C280CDBFFE787
:103BB00046F2C931C2F200010020087046F2CA3153
:103BC000C2F200010870FAE146F2C930C2F2000008
:103BD000007870B9FFE744F67F60C0F6000000F09F
:103BE0004DFC40F2AC30C2F20000002100F0D6FBE8
:103BF000FFE746F2C930C2F2000009900078C0F138
:103C00003B0000EB400140F2AC30C2F200000890F3
:103C100000EB41104FF4704100F0E0FB08984FF4C6
:103C2000BA61FFF71BF81E20FEF726F908980999DC
:103C30000978C1F13B0101EB410100EB411000218A
:103C400000F0CCFB099908780130087046F2C831C1
:103C5000C2F2000101200870B1E146F2C930C2F29F
:103C6000000000783C280CDBFFE746F2C931C2F2C5
:103C700000010020087046F2CA31C2F2000108704B
:103C80009DE146F2C930C2F20000007870B9FFE74A
:103C900044F68B60C0F6000000F0F0FB40F2AC3060
:103CA000C2F20000002100F079FBFFE746F2C930C4
:103CB000C2F200000790007800EB400140F2AC3007
:103CC000C2F20000069000EB4110F02100F086FBEC
:103CD00006984FF4BA61FEF7C1FF1E20FEF7CCF83C
:103CE00006980799097801EB410100EB411000218A
:103CF00000F074FB079908780130087046F2C8316B
:103D0000C2F200010120087059E146F2C930C2F246
:103D10000000007871280CD3FFE746F2C931C2F2E7
:103D200000010020087046F2CA31C2F2000108709A
:103D300045E146F2C930C2F20000007870B9FFE7F1
:103D400044F63C60C0F6000000F098FB40F2AC3056
:103D5000C2F20000002100F021FBFFE746F2C93269
:103D6000C2F200021178481C107040F21010C2F22A
:103D7000000030F811104FF47000FDF7A1FF46F27B
:103D8000C831C2F200010120087018E146F2C930C2
:103D9000C2F20000007874280CD3FFE746F2C93164
:103DA000C2F200010020087046F2CA31C2F20001DE
:103DB000087004E146F2C930C2F20000007838B958
:103DC000FFE744F62C60C0F6000000F057FBFFE769
:103DD00046F2C932C2F200021178481C107040F25B
:103DE0002800C2F2000030F811104FF47000FDF707
:103DF00067FF46F2C831C2F2000100200870DEE021
:103E000044F67560C0F6000000F038FB4FF4700017
:103E1000FDF742FF46F2C831C2F2000101200870EE
:103E200046F2CA31C2F2000100200870C7E044F631
:103E30005A60C0F6000000F021FB00200590FDF75D
:103E40002BFF059846F2C831C2F20001087046F215
:103E5000CA31C2F200010870B1E046F2C930C2F2C4
:103E600000000078D72807D3FFE746F2C931C2F235
:103E7000000100200870FFE746F2C930C2F20000DE
:103E8000007838B9FFE744F66760C0F6000000F03C
:103E9000F5FAFFE746F2C932C2F200021178481C77
:103EA000107040F2F210C2F2000030F811104FF41E
:103EB0007000FDF705FF46F2C831C2F20001012093
:103EC00008707CE046F2C930C2F2000000783C285D
:103ED00007DBFFE746F2C931C2F20001002008709B
:103EE000FFE746F2C930C2F20000007838B9FFE7B8
:103EF00044F64B60C0F6000000F0C0FAFFE7FCF7A4
:103F000081F948F28101C8F28001019151FB000260
:103F1000D11101EBD271A1EB012108440004009002
:103F2000FCF770F9019A0146009852FB0113DA116F
:103F300002EBD372A2EB0222114440EA012002906C
:103F4000FCF760F9019A0146029852FB0113DA115D
:103F500002EBD372A2EB022211440843109046F206
:103F6000C930C2F200000490007800EB400140F23A
:103F7000AC30C2F20000039000EB4110109900F049
:103F80002DFA03984FF4BA61FEF768FE0520FDF79D
:103F900073FF03980499097801EB410100EB41108C
:103FA000002100F01BFA049908780130087046F2ED
:103FB000C831C2F200010120087000E0FFE7FFE70E
:103FC00046F2CA30C2F20000007846F2B031C2F2C6
:103FD00000010870119815301190ACE486B08DED99
:103FE000050ACDED040A8DED031A9DED050A9DED40
:103FF000041AB4EE410AF1EE10FA05DDFFE79DED7B
:10400000050A8DED010A04E09DED040A8DED010A1B
:10401000FFE79DED010A8DED020A9DED020A9DED7F
:10402000031AB4EE410AF1EE10FA05DDFFE79DED4B
:10403000020A8DED000A04E09DED030A8DED000AF1
:10404000FFE79DED000A06B07047000086B08DEDD9
:10405000050ACDED040A8DED031A9DED050A9DEDCF
:10406000041AB4EE410AF1EE10FA05DAFFE79DED0D
:10407000050A8DED010A04E09DED040A8DED010AAB
:10408000FFE79DED010A8DED020A9DED020A9DED0F
:10409000031AB4EE410AF1EE10FA05DAFFE79DEDDE
:1040A000020A8DED000A04E09DED030A8DED000A81
:1040B000FFE79DED000A06B07047000080B582B0B2
:1040C00046F2CB30C2F20000007820B1FFE70020BA
:1040D0008DF807002CE00020009000F051F80098C7
:1040E0008DF80600FFE79DF80600322814D8FFE798
:1040F0009DF8062044F6AD50C0F6000000EB4201EA
:1041000010F812004978FDF745FBFFE79DF806001F
:1041100001308DF80600E6E7002000F031F846F2A5
:10412000CB31C2F20001012008708DF80700FFE7D3
:104130009DF8070002B080BD80B582B000200090DD
:1041400000F01EF800980190FFE701981D2811D893
:10415000FFE7019A44F67150C0F6000000EB4201FF
:1041600010F812004978FDF715FBFFE701980130C0
:104170000190EAE7002000F003F802B080BD0000E3
:1041800080B582B08DF807009DF8070001460091C8
:1041900020B1FFE70098012805D009E0EF200021B9
:1041A000FDF7F8FA04E0EF200121FDF7F3FAFFE74D
:1041B00002B080BD80B588B0DDF82CC0DDF828C025
:1041C0008DF81F008DF81E108DF81D2006939DF8A8
:1041D0001F0000EE100AB8EE400A9FED6D1A80EE47
:1041E000010A8DED050A9DF81E0000EE100AB8EEDA
:1041F000400A80EE010A8DED040A9DF81D0000EED4
:10420000100AB8EE400A80EE010A8DED030A9DED1A
:10421000050ADDED040A9DED031AFFF7DFFE8DEDC3
:10422000020A9DED050ADDED040A9DED031AFFF774
:104230000DFF8DED010A9DED020A9DED011A30EE94
:10424000410A8DED000A9DED000AB5EE400AF1EE3F
:1042500010FA04D1FFE70699002008607DE09DED8B
:10426000020A9DED051AB4EE410AF1EE10FA31D1C1
:10427000FFE79DED040A9DED031AB4EE410AF1EE4D
:1042800010FA12DBFFE79DED040A9DED031A30EEF4
:10429000410A9DED001A80EE010A9FED3E1A20EEC4
:1042A000010A069880ED000A13E09DED040A9DEDD9
:1042B000031A30EE410A9DED001A80EE011A9FEDBF
:1042C000352A9FED350AA1EE020A069880ED000A14
:1042D000FFE741E09DED020A9DED041AB4EE410AAC
:1042E000F1EE10FA16D1FFE79DED030A9DED051AD8
:1042F00030EE410A9DED001A80EE010AB0EE001A80
:1043000030EE010A9FED231A20EE010A069880ED97
:10431000000A20E09DED020A9DED031AB4EE410A69
:10432000F1EE10FA16D1FFE79DED050A9DED041A96
:1043300030EE410A9DED001A80EE010AB1EE001A3E
:1043400030EE010A9FED131A20EE010A069880ED67
:10435000000AFFE7FFE7FFE7FFE79DED020AB5EE82
:10436000400AF1EE10FA04D1FFE70A990020086034
:1043700009E09DED000A9DED021A80EE010A0A98FF
:1043800080ED000AFFE702980B99086008B080BD35
:1043900000007F43000070420000B44380B584B049
:1043A0000390029101208DF80700FFE79DF80700B8
:1043B0003C2811DCFFE703989DF8071001EB410151
:1043C00000EB4110029900F009F8FFE79DF80700A3
:1043D00001308DF80700E9E704B080BD83B002909A
:1043E0000191BDF806008DF803000198000A8DF8D0
:1043F000020001988DF8010000208DF80000FFE711
:104400009DF80000072836DCFFE79DF803009DF8C3
:104410000030C3F10701C840C1073C200029014614
:1044200018BF8C21029A02EB830211629DF80210E0
:104430009DF80030C3F10702D140C90700290146A9
:1044400018BF8C21029A42F823109DF801109DF8A4
:104450000020C2F10703D940C907002918BF8C20EA
:10446000029901EB82010864FFE79DF8000001302A
:104470008DF80000C4E703B0704700000FB4054B8F
:1044800010B503A9044A029800F0DAF810BC5DF8F0
:1044900014FB0000093600080400002002E008C8F0
:1044A000121F08C1002AFAD170477047002001E0AE
:1044B00001C1121F002AFBD1704700002DE9FF5FE8
:1044C00082B00021DDE90430020DDDF840B0034385
:1044D00018D044F61050A2F2FF324243151411983E
:1044E00001281FD0A5EB0B00401C5FEA000A4FF02B
:1044F00000064E4FDFF83891B046504615D5CAF148
:10450000000413E0119801244AA3012801D16FEAA5
:104510000B010298119AC0E90031C0E9024206B0CD
:10452000BDE8F09FCBF10000DFE704460021404AE0
:10453000491842EB0450CDE9001012E0E00707D023
:1045400032463B4640464946FCF7CDF88046894610
:1045500032463B4610461946FCF7C5F806460F465C
:104560006410002CEAD1DDE90401DDE90023BAF191
:10457000000F06DAFCF7B7F842464B46FCF7B3F8F3
:1045800005E0FBF7F8FE42464B46FBF7F4FE044617
:104590000E460022284BFCF731F903D84FF0FF30CC
:1045A000014607E00022254B20463146FBF73CFE42
:1045B000FCF70BF9102409E0002C0ADB0A22002387
:1045C000FBF7ABFF039B30321A55641E50EA010221
:1045D000F2D1641C039AC4F111031444119A012A04
:1045E00003D0012208430DD10AE0084304D0002083
:1045F0004FF0110B119072E7A3EB0B056D1E0DE050
:104600005B4504DD4FF0000205F1010504E003DA2B
:104610004FF00002A5F10105002AECD00298119993
:10462000C0E90231C0E9004579E70000000014400C
:104630000000F03F300000000000F0430000E03FC9
:104640002DE9FF4F95B09B468946064600250FE2AF
:10465000252877D100242746F84A0121059400E057
:10466000044316F8013F203B01FA03F01042F7D152
:1046700030782A2811D06FF02F033078A0F1300263
:10468000092A16D8059A44F0020402EB820203EBD1
:1046900042021044761C0590EFE759F8042B05926E
:1046A000002A03DA504244F40054059044F0020416
:1046B000761C30782E2816D116F8010F44F0040429
:1046C0002A280DD06FF02F023078A0F13003092B8B
:1046D00009D807EB870302EB4303C718761CF3E7FF
:1046E00059F8047B761C30786C280FD006DC4C28F7
:1046F00017D068280DD06A2814D104E0742810D08F
:104700007A280FD10DE044F400140AE044F4801438
:1047100001E044F440147278824202D104F580141E
:10472000761C761C307866280BD013DC582877D09E
:1047300009DC002875D04528F6D04628F4D0472853
:104740001AD19DE118E0632835D0642879D0652816
:1047500012D195E1702873D008DC6728F1D0692860
:104760006FD06E280DD06F2806D1B5E073282CD0FD
:10477000752875D0782874D05A46179990476D1CC3
:1047800075E1C4F30250022809D003280DD0D9F8EE
:10479000001004280DD00D6009F1040967E1D9F873
:1047A0000010EA17C1E90052F6E7D9F800100D80B1
:1047B000F2E70D70F0E719F8041B8DF800100020E7
:1047C0008DF80100EA46012003E059F804AB4FF0F0
:1047D000FF3061074FF0000102D40DE008F1010144
:1047E0008846B9420FDA8045F8DB1AF8081000292C
:1047F000F4D108E008F1010188468142FADB1AF899
:1048000008100029F6D105985B46A0EB0807214661
:104810003846179A00F094FA284400EB080507E0A0
:104820004DE029E10DE01AF8010B5A46179990471F
:10483000B8F10108F7D25B4621463846179A13E1D2
:1048400042E00A220092C4F302524FF0000A022A08
:1048500008D059F804CB032A4FEAEC710AD00DE0D6
:1048600029E02AE009F1070121F00702F2E802C17C
:10487000914609E00FFA8CFC4FEAEC71042A03D14F
:104880004FFA8CFC4FEAEC71002907DA0A46002146
:10489000DCF1000C61EB02012D2202E0220504D5BF
:1048A0002B228DF80420012203E0E20701D0202210
:1048B000F7E7904659E00A2102E010220DE01021AE
:1048C0004FF0000A00910BE010224FF0000A44F074
:1048D00004040827009203E008224FF0000A009227
:1048E000C4F30252022A05D059F804CB0021032A4E
:1048F00008D009E009F1070121F00702F2E802C13E
:10490000914605E01FFA8CFC042A01D10CF0FF0C43
:104910004FF00008220728D5702806D0009B83F0AE
:10492000100353EA0A0305D00EE040228DF804205C
:10493000012208E05CEA010206D030228DF8042052
:104940008DF8050002229046009B83F0080353EA8D
:104950000A030AD15CEA010201D1620705D53022BF
:104960008DF804204FF001087F1E582804D034A091
:1049700003900EA802900DE036A0F9E7534660467A
:10498000009AFBF7CAFD84460398825C0298401E99
:10499000029002705CEA0100F0D1029806A9081AA0
:1049A00000F1200A600702D524F4803400E00127DA
:1049B000574502DDA7EB0A0000E0002000EB0A01EA
:1049C000009005984144401A0590E00306D45B46E8
:1049D0002146179A059800F0B3F90544002706E030
:1049E00001A85A46C05D179990476D1C7F1C47452A
:1049F000F6DBE0030CD55B462146179A059800F0DC
:104A00009FF9054404E030205A46179990476D1CE1
:104A10000099481E00900029F5DC08E002980299F0
:104A20005A460078491C0291179990476D1CBAF1BB
:104A30000001AAF1010AF1DC65E10000092801008A
:104A40003031323334353637383961626364656604
:104A500000000000303132333435363738394142C6
:104A6000434445460000000000F058F90544761C18
:104A7000307800287FF4ECAD19B02846BDE8F08FFF
:104A8000620700D4062709F1070222F0070CFCE8B0
:104A90000223E14603F000485FEA080C02D00FF25F
:104AA000702C0DE05FEA045C02D50FF2682C07E081
:104AB0005FEAC47C02D00FF2602C01E0AFF2700C10
:104AC0004FF0FF3823F00043CDF850C065280CD0DC
:104AD00006DC452809D046281DD047283DD13DE0B9
:104AE000662818D067287ED138E00021112F01DB1D
:104AF000112000E0781CCDE9000106A90EA8FFF7FF
:104B0000DDFCDDE90F010E9A03910021009207F10F
:104B1000010A04914DE04FF000400097CDE90110EB
:104B200006A90EA8FFF7CAFCDDE90F0203920E9B4F
:104B300011990022DDF80CA00093049211B9791CA0
:104B400000EB010AB7EB0A0004D4C0F1FF3007F113
:104B5000010A0490AAEB0700019044E0012F00DA5B
:104B600001270021112F01DD112000E03846CDE999
:104B7000000106A90EA8FFF7A1FCDDE90F010E9ABE
:104B80000391002104910092BA4621070CD40399A5
:104B9000514500DA8A46BAF1010F05DD009AAAF103
:104BA0000101515C302908D0B84202DA10F1040F3B
:104BB00006DA0121CDE9011015E0AAF10101E9E7CA
:104BC000002805DC049901440491AAEB000102E0ED
:104BD000411C514500DD8A460499401A401C019051
:104BE0004FF000400290200704D40198504501DBAB
:104BF000CDF8048000208DF84F0002980DF14F078A
:104C0000B0F1004F25D02B200E9002984FF00208F3
:104C100000280CDA404202902D200E9007E00A2175
:104C20000298FBF764FC3031029007F8011DB8F1DF
:104C30000001A8F10108F2DC02980028EFD1791EEA
:104C40000E980870307800F0200040F0450007F81A
:104C5000020D12A8C01B00F107081498007800B1DB
:104C6000012000EB0A01019801EBE0710598414435
:104C7000401A401E0590E00306D45B462146179A71
:104C8000059800F05DF805441498007818B15A466C
:104C9000179990476D1CE00324D55B462146179A6F
:104CA000059800F04DF805441CE00498002807DB47
:104CB000DDE90301884203DD0098405C179901E0BB
:104CC000179930205A469047049805F10105401C79
:104CD00004900198401E019004D12E205A46179945
:104CE00090476D1CBAF10001AAF1010ADDDC05E074
:104CF00017F8010B5A46179990476D1CB8F100013F
:104D0000A8F10108F4DC5B462146179A0598ABE64A
:104D10002D0000002B000000200000002DE9F041D4
:104D2000044600251E461746880404D405E039468B
:104D30002020B0476D1C641EF9D52846BDE8F081DF
:104D40002DE9F041044600251E469046C80301D5D2
:104D5000302700E02027880404D505E04146384686
:104D6000B0476D1C641EF9D52846BDE8F081AA4401
:104D700000EF0041004200EF00483C490051108321
:104D8000209FF9EF01011E020F031004024140436E
:104D900030659666006797680169CD6A016BB06CF3
:104DA000046D2C6E017400EF0041FF4201EF0037EB
:104DB000073817390641004200462D470F483C4945
:104DC000004A1E4C2051105E1060278042814482B0
:104DD000048B019006950A960C97059A149C3FA5A2
:104DE00019CC19CD0BCE13CF64D021EF01020F03E4
:104DF00010040225012739287F29083EFF5E3D6502
:104E000096679769CD6A016D2C6E017201733574D6
:104E10000077010002000000E1FFFF1F02000020F8
:104E2000E3FFFF3F02000040E5FFFF5F4D4F4445B9
:104E30005F4241434B574152440D0A004D4F444598
:104E40005F464F52574152440D0A004D4F44455F53
:104E50004D4152515545450D0A004D4F44455F4364
:104E60004C4F53450D0A004D4F44455F425245415A
:104E700054480D0A004D4F44455F4F4E0D0A004DFA
:104E80004F44455F4C4546540D0A004D4F44455F25
:104E900052494748540D0A004261636B776172645E
:104EA0000D0A00466F72776172640D0A004C6566E8
:104EB000740D0A0052696768740D0A00797A2064DB
:104EC000656275672025732D256420656E0A00795B
:104ED0007A2064656275672025732D2564206469D6
:104EE000730A006D61696E00797A20646562756786
:104EF0002025732D2564206B657920636F756E7492
:104F00002025640A00797A2064656275672025731C
:104F10002D2564206B6579207570646174650A00C5
:104F200045585449345F49525148616E646C65720A
:104F3000000D0A424F415244203A204D696E692DBE
:104F40004635333333000D0A4D4355203A204D4D3D
:104F500033324635333333443750000D0A504C4C0E
:104F6000312028636C6F636B65642062792048533D
:104F700045292075736564206173207379737465A6
:104F80006D20636C6F636B20736F75726365000DCA
:104F90000A504C4C312028636C6F636B656420624F
:104FA0007920485349292075736564206173207303
:104FB000797374656D20636C6F636B20736F7572AA
:104FC0006365000D0A48534520757365642061735D
:104FD0002073797374656D20636C6F636B20736FDE
:104FE00075726365000D0A48534920757365642026
:104FF00061732073797374656D20636C6F636B20CC
:10500000736F75726365000D0A4C534920757365A3
:10501000642061732073797374656D20636C6F63B2
:105020006B20736F75726365000D0A48434C4B200B
:1050300020204672657175656E6379203A202537A8
:105040002E3366204D487A000D0A50434C4B3120D8
:10505000204672657175656E6379203A2025372E7A
:105060003366204D487A000D0A50434C4B322020C5
:105070004672657175656E6379203A2025372E3347
:1050800066204D487A000D0A535953434C4B204635
:1050900072657175656E6379203A2025372E336607
:1050A000204D487A00000000C85000080000002091
:1050B000AC0300007008000830520008AC03002068
:1050C00024600000AC440008D20001400B01020340
:1050D000040607080900050C10060095BA0A011815
:1050E00032F7021004F000EE021078E500DD00D582
:1050F00000CD00C500BE00B700B000AA00A4009E0D
:1051000000980092008D00880083007E007A007570
:105110000071006D006900650061005E005A005773
:1051200000540051004E004B00480046004300412F
:10513000003E003C003A00380036003400320030B7
:10514000002E002D002B0029002800260025002419
:10515000002200210020001F001E001C001B001A5E
:10516000001902100A18001700160015001402108A
:105170000413001202100411001002120F02120E8A
:1051800002120D02120C02120B02320A0272090202
:105190009208029207025203024500610EA122A169
:1051A0003A81504160216A2172217A2182218A212B
:1051B0009232119E3213AA1215B41217BC21C212D8
:1051C0001ACC121CD4121FDC1221E41224EC122679
:1051D000F41229FC162D0416300C16341416381C43
:1051E000163C2416412C164634164B3C16514416D8
:1051F000574C165E5416655C166D6416756C167EFB
:105200007416887C169284169E8C16AA9416B79CE7
:1052100016C5A416D5AC36E5B656F0C401D8DA09E1
:10522000D29E2C09636D645F69643A32A803000062
:045230007856341266
:04000005080001F1FD
:00000001FF
